{
  "contractName": "Pausable",
  "abi": [
    {
      "inputs": [
        {
          "name": "ownerAddress",
          "type": "address"
        }
      ],
      "payable": true,
      "stateMutability": "payable",
      "type": "constructor"
    },
    {
      "constant": false,
      "inputs": [],
      "name": "stopContract",
      "outputs": [],
      "payable": false,
      "stateMutability": "nonpayable",
      "type": "function"
    },
    {
      "constant": false,
      "inputs": [],
      "name": "resumeContract",
      "outputs": [],
      "payable": false,
      "stateMutability": "nonpayable",
      "type": "function"
    }
  ],
  "bytecode": "0x608060405260008060006101000a81548160ff0219169083151502179055506040516020806102fe8339810180604052810190808051906020019092919050505080600060016101000a81548173ffffffffffffffffffffffffffffffffffffffff021916908373ffffffffffffffffffffffffffffffffffffffff1602179055505061026d806100916000396000f30060806040526004361061004c576000357c0100000000000000000000000000000000000000000000000000000000900463ffffffff16806312253a6c14610051578063c4bc5da514610068575b600080fd5b34801561005d57600080fd5b5061006661007f565b005b34801561007457600080fd5b5061007d610160565b005b3373ffffffffffffffffffffffffffffffffffffffff16600060019054906101000a900473ffffffffffffffffffffffffffffffffffffffff1673ffffffffffffffffffffffffffffffffffffffff16141515610144576040517f08c379a000000000000000000000000000000000000000000000000000000000815260040180806020018281038252600c8152602001807f556e617574686f72697a6564000000000000000000000000000000000000000081525060200191505060405180910390fd5b60016000806101000a81548160ff021916908315150217905550565b3373ffffffffffffffffffffffffffffffffffffffff16600060019054906101000a900473ffffffffffffffffffffffffffffffffffffffff1673ffffffffffffffffffffffffffffffffffffffff16141515610225576040517f08c379a000000000000000000000000000000000000000000000000000000000815260040180806020018281038252600c8152602001807f556e617574686f72697a6564000000000000000000000000000000000000000081525060200191505060405180910390fd5b60008060006101000a81548160ff0219169083151502179055505600a165627a7a72305820dd666f33e732448032efbd4c6fa98b06186bb3fe8fffb7e8007d62c2ab70972e0029",
  "source": "pragma solidity 0.4.24;\n\ncontract Pausable {\n  bool isStopped = false;\n  address authorizer;\n\n  constructor (address ownerAddress) public payable {\n    authorizer = ownerAddress;\n  }\n\n  modifier onlyAuthorized {\n    require(authorizer == msg.sender,\"Unauthorized\");\n    _;\n  }\n\n  function stopContract() public onlyAuthorized {\n    isStopped = true;\n  }\n\n  function resumeContract() public onlyAuthorized {\n    isStopped = false;\n  }\n\n  modifier onlyIfRunning {\n    require(!isStopped,\"Contract Stopped.\");\n    _;\n  }\n\n  modifier onlyWhenStopped {\n    require(isStopped,\"Contract still active.\");\n    _;\n  }\n\n}",
  "sourcePath": "/home/richard/DAPPS/Splitter/contracts/Pausable.sol",
  "compiler": {
    "name": "solc",
    "version": "0.4.24+commit.e67f0147.Emscripten.clang"
  },
  "schemaVersion": "2.0.1",
  "updatedAt": "2018-09-09T19:39:16.608Z"
}