{
  "contractName": "Splitter",
  "abi": [
    {
      "inputs": [],
      "payable": true,
      "stateMutability": "payable",
      "type": "constructor"
    },
    {
      "anonymous": false,
      "inputs": [
        {
          "indexed": false,
          "name": "addressOfAccountOne",
          "type": "address"
        },
        {
          "indexed": false,
          "name": "addressOfAccountTwo",
          "type": "address"
        },
        {
          "indexed": false,
          "name": "valueOfAccountOne",
          "type": "uint256"
        },
        {
          "indexed": false,
          "name": "valueOfAccountTwo",
          "type": "uint256"
        }
      ],
      "name": "LogDetailsOfSplit",
      "type": "event"
    },
    {
      "anonymous": false,
      "inputs": [
        {
          "indexed": false,
          "name": "owner",
          "type": "address"
        },
        {
          "indexed": false,
          "name": "addressOfAccount",
          "type": "address"
        },
        {
          "indexed": false,
          "name": "value",
          "type": "uint256"
        }
      ],
      "name": "LogDetailsOfRefundToOwner",
      "type": "event"
    },
    {
      "anonymous": false,
      "inputs": [
        {
          "indexed": false,
          "name": "account",
          "type": "address"
        },
        {
          "indexed": false,
          "name": "value",
          "type": "uint256"
        }
      ],
      "name": "LogDetailsofWithdrawal",
      "type": "event"
    },
    {
      "constant": false,
      "inputs": [
        {
          "name": "toAccountOne",
          "type": "address"
        },
        {
          "name": "toAccountTwo",
          "type": "address"
        }
      ],
      "name": "split",
      "outputs": [
        {
          "name": "",
          "type": "bool"
        }
      ],
      "payable": true,
      "stateMutability": "payable",
      "type": "function"
    },
    {
      "constant": false,
      "inputs": [
        {
          "name": "withdrawalAddress",
          "type": "address"
        }
      ],
      "name": "withdraw",
      "outputs": [],
      "payable": false,
      "stateMutability": "nonpayable",
      "type": "function"
    },
    {
      "constant": false,
      "inputs": [
        {
          "name": "refundAddress",
          "type": "address"
        }
      ],
      "name": "refund",
      "outputs": [],
      "payable": false,
      "stateMutability": "nonpayable",
      "type": "function"
    }
  ],
  "bytecode": "0x6080604052336000806101000a81548173ffffffffffffffffffffffffffffffffffffffff021916908373ffffffffffffffffffffffffffffffffffffffff160217905550610b3a806100536000396000f300608060405260043610610057576000357c0100000000000000000000000000000000000000000000000000000000900463ffffffff1680630f2c93291461005c57806351cff8d9146100ca578063fa89401a1461010d575b600080fd5b6100b0600480360381019080803573ffffffffffffffffffffffffffffffffffffffff169060200190929190803573ffffffffffffffffffffffffffffffffffffffff169060200190929190505050610150565b604051808215151515815260200191505060405180910390f35b3480156100d657600080fd5b5061010b600480360381019080803573ffffffffffffffffffffffffffffffffffffffff169060200190929190505050610538565b005b34801561011957600080fd5b5061014e600480360381019080803573ffffffffffffffffffffffffffffffffffffffff169060200190929190505050610753565b005b60008060008060009054906101000a900473ffffffffffffffffffffffffffffffffffffffff1673ffffffffffffffffffffffffffffffffffffffff163373ffffffffffffffffffffffffffffffffffffffff1614151561023f576040517f08c379a000000000000000000000000000000000000000000000000000000000815260040180806020018281038252602c8152602001807f43616e6e6f742073706c69742066756e647320756e6c65737320796f7520617281526020017f6520746865206f776e65722e000000000000000000000000000000000000000081525060400191505060405180910390fd5b600034101515156102de576040517f08c379a00000000000000000000000000000000000000000000000000000000081526004018080602001828103825260308152602001807f43616e6e6f742073706c69742066756e647320617320796f7520646f206e6f7481526020017f206861766520616e792065746865722e0000000000000000000000000000000081525060400191505060405180910390fd5b6002348115156102ea57fe5b049150600282023403905081600160008773ffffffffffffffffffffffffffffffffffffffff1673ffffffffffffffffffffffffffffffffffffffff1681526020019081526020016000206000828254019250508190555081600160008673ffffffffffffffffffffffffffffffffffffffff1673ffffffffffffffffffffffffffffffffffffffff168152602001908152602001600020600082825401925050819055507f4477a3d6310a6e64955205fe807334ae8c32aa9d320b598679a8d40f95c91c2d8585600160008973ffffffffffffffffffffffffffffffffffffffff1673ffffffffffffffffffffffffffffffffffffffff16815260200190815260200160002054600160008973ffffffffffffffffffffffffffffffffffffffff1673ffffffffffffffffffffffffffffffffffffffff16815260200190815260200160002054604051808573ffffffffffffffffffffffffffffffffffffffff1673ffffffffffffffffffffffffffffffffffffffff1681526020018473ffffffffffffffffffffffffffffffffffffffff1673ffffffffffffffffffffffffffffffffffffffff16815260200183815260200182815260200194505050505060405180910390a1600081111561052c5780600160008060009054906101000a900473ffffffffffffffffffffffffffffffffffffffff1673ffffffffffffffffffffffffffffffffffffffff1673ffffffffffffffffffffffffffffffffffffffff168152602001908152602001600020600082825401925050819055505b60019250505092915050565b600080600160008473ffffffffffffffffffffffffffffffffffffffff1673ffffffffffffffffffffffffffffffffffffffff16815260200190815260200160002054111515610616576040517f08c379a00000000000000000000000000000000000000000000000000000000081526004018080602001828103825260248152602001807f43616e6e6f742077697468647261772066756e6473206173206e6f6e6520657881526020017f6973742e0000000000000000000000000000000000000000000000000000000081525060400191505060405180910390fd5b600160008373ffffffffffffffffffffffffffffffffffffffff1673ffffffffffffffffffffffffffffffffffffffff1681526020019081526020016000205490506000600160008473ffffffffffffffffffffffffffffffffffffffff1673ffffffffffffffffffffffffffffffffffffffff168152602001908152602001600020819055508173ffffffffffffffffffffffffffffffffffffffff166108fc829081150290604051600060405180830381858888f193505050501580156106e3573d6000803e3d6000fd5b507f7ef1f985878acec4cbd63c0cfa2d4e5bd52859aceb74b7cc9f7b105fc3d0b1128282604051808373ffffffffffffffffffffffffffffffffffffffff1673ffffffffffffffffffffffffffffffffffffffff1681526020018281526020019250505060405180910390a15050565b60008060009054906101000a900473ffffffffffffffffffffffffffffffffffffffff1673ffffffffffffffffffffffffffffffffffffffff163373ffffffffffffffffffffffffffffffffffffffff1614151561083f576040517f08c379a000000000000000000000000000000000000000000000000000000000815260040180806020018281038252602d8152602001807f43616e6e6f7420726566756e642066756e647320756e6c65737320796f75206181526020017f726520746865206f776e65722e0000000000000000000000000000000000000081525060400191505060405180910390fd5b6000600160008473ffffffffffffffffffffffffffffffffffffffff1673ffffffffffffffffffffffffffffffffffffffff1681526020019081526020016000205411151561091c576040517f08c379a00000000000000000000000000000000000000000000000000000000081526004018080602001828103825260288152602001807f43616e6e6f7420726566756e64206173206e6f2066756e64732061726520617681526020017f61696c61626c652e00000000000000000000000000000000000000000000000081525060400191505060405180910390fd5b600160008373ffffffffffffffffffffffffffffffffffffffff1673ffffffffffffffffffffffffffffffffffffffff1681526020019081526020016000205490507f6b5755a2585fd7639193325e423d55d34ad0d0f453bf394f5942a7ab48976ad26000809054906101000a900473ffffffffffffffffffffffffffffffffffffffff1683600160008673ffffffffffffffffffffffffffffffffffffffff1673ffffffffffffffffffffffffffffffffffffffff16815260200190815260200160002054604051808473ffffffffffffffffffffffffffffffffffffffff1673ffffffffffffffffffffffffffffffffffffffff1681526020018373ffffffffffffffffffffffffffffffffffffffff1673ffffffffffffffffffffffffffffffffffffffff168152602001828152602001935050505060405180910390a16000600160008473ffffffffffffffffffffffffffffffffffffffff1673ffffffffffffffffffffffffffffffffffffffff168152602001908152602001600020819055506000809054906101000a900473ffffffffffffffffffffffffffffffffffffffff1673ffffffffffffffffffffffffffffffffffffffff166108fc829081150290604051600060405180830381858888f19350505050158015610b09573d6000803e3d6000fd5b5050505600a165627a7a723058203da94c54dc0b4c3fa0bedc8f8f4a47c0216057e791d051b45e7ba7a003ed69170029",
  "source": "pragma solidity 0.4.24;\n\ncontract Splitter {\n  address owner;\n\n  mapping (address => uint256) pendingWithdrawals;\n\n  event LogDetailsOfSplit(address addressOfAccountOne,address addressOfAccountTwo, uint256 valueOfAccountOne,uint256 valueOfAccountTwo);\n  event LogDetailsOfRefundToOwner(address owner,address addressOfAccount, uint256 value);\n  event LogDetailsofWithdrawal(address account, uint256 value);\n\n  constructor () public payable {\n    owner = msg.sender;\n  }\n  \n  function split(address toAccountOne, address toAccountTwo) public payable returns (bool) {\n\n    require(msg.sender == owner,\"Cannot split funds unless you are the owner.\");\n    require(msg.value >= 0,\"Cannot split funds as you do not have any ether.\");\n    uint256 amountPerPerson = msg.value / 2;\n    uint256 remainder = msg.value - (amountPerPerson * 2);\n\n    pendingWithdrawals[toAccountOne] += amountPerPerson;\n    pendingWithdrawals[toAccountTwo] += amountPerPerson;\n\n    emit LogDetailsOfSplit(toAccountOne,toAccountTwo,pendingWithdrawals[toAccountOne],pendingWithdrawals[toAccountTwo]);\n\n    if (remainder > 0)\n    {\n      pendingWithdrawals[owner] += remainder;\n    }\n    return true;\n  }\n\n  function withdraw(address withdrawalAddress) public {\n    require (pendingWithdrawals[withdrawalAddress] > 0,\"Cannot withdraw funds as none exist.\");\n\n    uint amount = pendingWithdrawals[withdrawalAddress];\n    pendingWithdrawals[withdrawalAddress] = 0;\n    withdrawalAddress.transfer(amount);\n    emit LogDetailsofWithdrawal(withdrawalAddress,amount);\n  }\n\n  function refund(address refundAddress) public {\n    require(msg.sender == owner,\"Cannot refund funds unless you are the owner.\");\n    require(pendingWithdrawals[refundAddress] > 0,\"Cannot refund as no funds are available.\");\n    uint amount = pendingWithdrawals[refundAddress];\n    emit LogDetailsOfRefundToOwner(owner,refundAddress,pendingWithdrawals[refundAddress]);\n    pendingWithdrawals[refundAddress] = 0;\n    owner.transfer(amount);\n  }\n}",
  "sourcePath": "/home/richard/DAPPS/Splitter/contracts/Splitter.sol",
  "compiler": {
    "name": "solc",
    "version": "0.4.24+commit.e67f0147.Emscripten.clang"
  },
  "schemaVersion": "2.0.1",
  "updatedAt": "2018-09-08T18:57:54.947Z"
}