{
  "contractName": "Splitter",
  "abi": [
    {
      "inputs": [],
      "payable": true,
      "stateMutability": "payable",
      "type": "constructor"
    },
    {
      "anonymous": false,
      "inputs": [
        {
          "indexed": false,
          "name": "amountSent",
          "type": "uint256"
        },
        {
          "indexed": false,
          "name": "accountOne",
          "type": "address"
        },
        {
          "indexed": false,
          "name": "valueOne",
          "type": "uint256"
        },
        {
          "indexed": false,
          "name": "accountTwo",
          "type": "address"
        },
        {
          "indexed": false,
          "name": "valueTwo",
          "type": "uint256"
        },
        {
          "indexed": false,
          "name": "remainder",
          "type": "uint256"
        }
      ],
      "name": "LogDetailsOfTransferAmount",
      "type": "event"
    },
    {
      "anonymous": false,
      "inputs": [
        {
          "indexed": false,
          "name": "account",
          "type": "address"
        },
        {
          "indexed": false,
          "name": "value",
          "type": "uint256"
        }
      ],
      "name": "LogDetailsofWithdrawal",
      "type": "event"
    },
    {
      "anonymous": false,
      "inputs": [
        {
          "indexed": false,
          "name": "account",
          "type": "address"
        },
        {
          "indexed": false,
          "name": "value",
          "type": "uint256"
        }
      ],
      "name": "LogDetailsofEmergencyWithdrawal",
      "type": "event"
    },
    {
      "constant": false,
      "inputs": [],
      "name": "stopContract",
      "outputs": [],
      "payable": false,
      "stateMutability": "nonpayable",
      "type": "function"
    },
    {
      "constant": false,
      "inputs": [],
      "name": "resumeContract",
      "outputs": [],
      "payable": false,
      "stateMutability": "nonpayable",
      "type": "function"
    },
    {
      "constant": false,
      "inputs": [
        {
          "name": "toAccountOne",
          "type": "address"
        },
        {
          "name": "toAccountTwo",
          "type": "address"
        }
      ],
      "name": "transferAmount",
      "outputs": [
        {
          "name": "",
          "type": "bool"
        }
      ],
      "payable": true,
      "stateMutability": "payable",
      "type": "function"
    },
    {
      "constant": false,
      "inputs": [
        {
          "name": "amount",
          "type": "uint256"
        }
      ],
      "name": "withdrawAmount",
      "outputs": [],
      "payable": false,
      "stateMutability": "nonpayable",
      "type": "function"
    },
    {
      "constant": false,
      "inputs": [],
      "name": "emergencyWithdraw",
      "outputs": [],
      "payable": false,
      "stateMutability": "nonpayable",
      "type": "function"
    }
  ],
  "bytecode": "0x60806040526000600260006101000a81548160ff021916908315150217905550336000806101000a81548173ffffffffffffffffffffffffffffffffffffffff021916908373ffffffffffffffffffffffffffffffffffffffff160217905550610b128061006e6000396000f30060806040526004361061006d576000357c0100000000000000000000000000000000000000000000000000000000900463ffffffff1680630562b9f71461007257806312253a6c1461009f57806344514f02146100b6578063c4bc5da514610124578063db2e21bc1461013b575b600080fd5b34801561007e57600080fd5b5061009d60048036038101908080359060200190929190505050610152565b005b3480156100ab57600080fd5b506100b4610388565b005b61010a600480360381019080803573ffffffffffffffffffffffffffffffffffffffff169060200190929190803573ffffffffffffffffffffffffffffffffffffffff169060200190929190505050610469565b604051808215151515815260200191505060405180910390f35b34801561013057600080fd5b506101396107db565b005b34801561014757600080fd5b506101506108bc565b005b600260009054906101000a900460ff161515156101d7576040517f08c379a00000000000000000000000000000000000000000000000000000000081526004018080602001828103825260118152602001807f436f6e74726163742053746f707065642e00000000000000000000000000000081525060200191505060405180910390fd5b600160003373ffffffffffffffffffffffffffffffffffffffff1673ffffffffffffffffffffffffffffffffffffffff16815260200190815260200160002054811115151561028e576040517f08c379a00000000000000000000000000000000000000000000000000000000081526004018080602001828103825260148152602001807f46756e6473206e6f7420617661696c61626c652e00000000000000000000000081525060200191505060405180910390fd5b6000600160003373ffffffffffffffffffffffffffffffffffffffff1673ffffffffffffffffffffffffffffffffffffffff168152602001908152602001600020819055503373ffffffffffffffffffffffffffffffffffffffff166108fc829081150290604051600060405180830381858888f19350505050158015610319573d6000803e3d6000fd5b507f7ef1f985878acec4cbd63c0cfa2d4e5bd52859aceb74b7cc9f7b105fc3d0b1123382604051808373ffffffffffffffffffffffffffffffffffffffff1673ffffffffffffffffffffffffffffffffffffffff1681526020018281526020019250505060405180910390a150565b3373ffffffffffffffffffffffffffffffffffffffff166000809054906101000a900473ffffffffffffffffffffffffffffffffffffffff1673ffffffffffffffffffffffffffffffffffffffff1614151561044c576040517f08c379a000000000000000000000000000000000000000000000000000000000815260040180806020018281038252600c8152602001807f556e617574686f72697a6564000000000000000000000000000000000000000081525060200191505060405180910390fd5b6001600260006101000a81548160ff021916908315150217905550565b6000806000600260009054906101000a900460ff161515156104f3576040517f08c379a00000000000000000000000000000000000000000000000000000000081526004018080602001828103825260118152602001807f436f6e74726163742053746f707065642e00000000000000000000000000000081525060200191505060405180910390fd5b60003410151515610592576040517f08c379a00000000000000000000000000000000000000000000000000000000081526004018080602001828103825260308152602001807f43616e6e6f742073706c69742066756e647320617320796f7520646f206e6f7481526020017f206861766520616e792065746865722e0000000000000000000000000000000081525060400191505060405180910390fd5b60023481151561059e57fe5b049150600282023403905081600160008773ffffffffffffffffffffffffffffffffffffffff1673ffffffffffffffffffffffffffffffffffffffff1681526020019081526020016000206000828254019250508190555081600160008673ffffffffffffffffffffffffffffffffffffffff1673ffffffffffffffffffffffffffffffffffffffff16815260200190815260200160002060008282540192505081905550600081111561069a5780600160003373ffffffffffffffffffffffffffffffffffffffff1673ffffffffffffffffffffffffffffffffffffffff168152602001908152602001600020600082825401925050819055505b7ff1dafdc9a377e8288e9fdc985cd210ab6741c3a8a8edb1516c85de323919e9f53486600160008973ffffffffffffffffffffffffffffffffffffffff1673ffffffffffffffffffffffffffffffffffffffff1681526020019081526020016000205487600160008a73ffffffffffffffffffffffffffffffffffffffff1673ffffffffffffffffffffffffffffffffffffffff1681526020019081526020016000205486604051808781526020018673ffffffffffffffffffffffffffffffffffffffff1673ffffffffffffffffffffffffffffffffffffffff1681526020018581526020018473ffffffffffffffffffffffffffffffffffffffff1673ffffffffffffffffffffffffffffffffffffffff168152602001838152602001828152602001965050505050505060405180910390a160019250505092915050565b3373ffffffffffffffffffffffffffffffffffffffff166000809054906101000a900473ffffffffffffffffffffffffffffffffffffffff1673ffffffffffffffffffffffffffffffffffffffff1614151561089f576040517f08c379a000000000000000000000000000000000000000000000000000000000815260040180806020018281038252600c8152602001807f556e617574686f72697a6564000000000000000000000000000000000000000081525060200191505060405180910390fd5b6000600260006101000a81548160ff021916908315150217905550565b600260009054906101000a900460ff161515610940576040517f08c379a00000000000000000000000000000000000000000000000000000000081526004018080602001828103825260168152602001807f436f6e7472616374207374696c6c206163746976652e0000000000000000000081525060200191505060405180910390fd5b3373ffffffffffffffffffffffffffffffffffffffff166000809054906101000a900473ffffffffffffffffffffffffffffffffffffffff1673ffffffffffffffffffffffffffffffffffffffff16141515610a04576040517f08c379a000000000000000000000000000000000000000000000000000000000815260040180806020018281038252600c8152602001807f556e617574686f72697a6564000000000000000000000000000000000000000081525060200191505060405180910390fd5b3373ffffffffffffffffffffffffffffffffffffffff166108fc3073ffffffffffffffffffffffffffffffffffffffff16319081150290604051600060405180830381858888f19350505050158015610a61573d6000803e3d6000fd5b507fa87090550c142eac4d1886bd37e899a0c91448ce0fb1c0abfe8b4d78f4f4b61f333073ffffffffffffffffffffffffffffffffffffffff1631604051808373ffffffffffffffffffffffffffffffffffffffff1673ffffffffffffffffffffffffffffffffffffffff1681526020018281526020019250505060405180910390a15600a165627a7a723058200d4315ff8ba16badd699d1b6d505c7d7e0b320d60ebd40ce195b456d2296d8410029",
  "source": "pragma solidity 0.4.24;\n\ncontract Splitter {\n  address owner;\n\n  mapping (address => uint256) pendingWithdrawals;\n  bool isStopped = false;\n\n  event LogDetailsOfTransferAmount(uint256 amountSent,address accountOne,uint256 valueOne,address accountTwo,uint256 valueTwo,uint256 remainder);\n  event LogDetailsofWithdrawal(address account, uint256 value);\n  event LogDetailsofEmergencyWithdrawal(address account, uint256 value);\n\n  constructor () public payable {\n    owner = msg.sender;\n  }\n\n  modifier onlyAuthorized {\n    require(owner == msg.sender,\"Unauthorized\");\n    _;\n  }\n\n  function stopContract() public onlyAuthorized {\n    isStopped = true;\n  }\n\n  function resumeContract() public onlyAuthorized {\n    isStopped = false;\n  }\n\n  modifier stoppedInEmergency {\n    require(!isStopped,\"Contract Stopped.\");\n    _;\n  }\n\n  modifier onlyWhenStopped {\n    require(isStopped,\"Contract still active.\");\n    _;\n  }\n\n  function transferAmount(address toAccountOne, address toAccountTwo) public stoppedInEmergency payable returns (bool) {\n\n    require(msg.value >= 0,\"Cannot split funds as you do not have any ether.\");\n    uint256 amountPerPerson = msg.value / 2;\n    uint256 remainder = msg.value - (amountPerPerson * 2);\n\n    pendingWithdrawals[toAccountOne] += amountPerPerson;\n    pendingWithdrawals[toAccountTwo] += amountPerPerson;\n    \n    if (remainder > 0)\n    {\n      pendingWithdrawals[msg.sender] += remainder;\n    }\n\n    emit LogDetailsOfTransferAmount(msg.value, toAccountOne,pendingWithdrawals[toAccountOne],toAccountTwo,pendingWithdrawals[toAccountTwo],remainder);\n\n    return true;\n  }\n\n  function withdrawAmount(uint256 amount) public stoppedInEmergency {\n    require (amount <= pendingWithdrawals[msg.sender],\"Funds not available.\");\n    pendingWithdrawals[msg.sender] = 0;\n    msg.sender.transfer(amount);\n    emit LogDetailsofWithdrawal(msg.sender,amount);\n  }\n\n  function emergencyWithdraw() public onlyWhenStopped onlyAuthorized {\n    msg.sender.transfer(address(this).balance);\n    emit LogDetailsofEmergencyWithdrawal(msg.sender,address(this).balance);\n  }\n}",
  "sourcePath": "/home/richard/DAPPS/Splitter/contracts/Splitter.sol",
  "compiler": {
    "name": "solc",
    "version": "0.4.24+commit.e67f0147.Emscripten.clang"
  },
  "schemaVersion": "2.0.1",
  "updatedAt": "2018-09-08T21:21:13.230Z"
}