{
  "contractName": "Splitter",
  "abi": [
    {
      "inputs": [],
      "payable": true,
      "stateMutability": "payable",
      "type": "constructor"
    },
    {
      "anonymous": false,
      "inputs": [
        {
          "indexed": false,
          "name": "location",
          "type": "string"
        }
      ],
      "name": "LogDetails",
      "type": "event"
    },
    {
      "anonymous": false,
      "inputs": [
        {
          "indexed": false,
          "name": "location",
          "type": "string"
        },
        {
          "indexed": false,
          "name": "value",
          "type": "uint256"
        }
      ],
      "name": "LogDetailsAndValue",
      "type": "event"
    },
    {
      "anonymous": false,
      "inputs": [
        {
          "indexed": false,
          "name": "location",
          "type": "string"
        },
        {
          "indexed": false,
          "name": "value",
          "type": "address"
        }
      ],
      "name": "LogDetailsAndAddress",
      "type": "event"
    },
    {
      "constant": false,
      "inputs": [
        {
          "name": "toAccountOne",
          "type": "address"
        },
        {
          "name": "toAccountTwo",
          "type": "address"
        }
      ],
      "name": "split",
      "outputs": [
        {
          "name": "",
          "type": "bool"
        }
      ],
      "payable": true,
      "stateMutability": "payable",
      "type": "function"
    }
  ],
  "bytecode": "0x6080604052336000806101000a81548173ffffffffffffffffffffffffffffffffffffffff021916908373ffffffffffffffffffffffffffffffffffffffff160217905550610468806100536000396000f300608060405260043610610041576000357c0100000000000000000000000000000000000000000000000000000000900463ffffffff1680630f2c932914610046575b600080fd5b61009a600480360381019080803573ffffffffffffffffffffffffffffffffffffffff169060200190929190803573ffffffffffffffffffffffffffffffffffffffff1690602001909291905050506100b4565b604051808215151515815260200191505060405180910390f35b60008060008060009054906101000a900473ffffffffffffffffffffffffffffffffffffffff1673ffffffffffffffffffffffffffffffffffffffff163373ffffffffffffffffffffffffffffffffffffffff161415156101a3576040517f08c379a000000000000000000000000000000000000000000000000000000000815260040180806020018281038252602c8152602001807f43616e6e6f742073706c69742066756e647320756e6c65737320796f7520617281526020017f6520746865206f776e65722e000000000000000000000000000000000000000081525060400191505060405180910390fd5b60003410151515610242576040517f08c379a00000000000000000000000000000000000000000000000000000000081526004018080602001828103825260308152602001807f43616e6e6f742073706c69742066756e647320617320796f7520646f206e6f7481526020017f206861766520616e792065746865722e0000000000000000000000000000000081525060400191505060405180910390fd5b60023481151561024e57fe5b049150600282023403905061026385836103e9565b15156102d7576040517f08c379a000000000000000000000000000000000000000000000000000000000815260040180806020018281038252600f8152602001807f5472616e73666572206661696c6564000000000000000000000000000000000081525060200191505060405180910390fd5b6102e184836103e9565b1515610355576040517f08c379a000000000000000000000000000000000000000000000000000000000815260040180806020018281038252600f8152602001807f5472616e73666572206661696c6564000000000000000000000000000000000081525060200191505060405180910390fd5b60008111156103dd5761036833826103e9565b15156103dc576040517f08c379a000000000000000000000000000000000000000000000000000000000815260040180806020018281038252600f8152602001807f5472616e73666572206661696c6564000000000000000000000000000000000081525060200191505060405180910390fd5b5b60019250505092915050565b60008273ffffffffffffffffffffffffffffffffffffffff166108fc839081150290604051600060405180830381858888f19350505050158015610431573d6000803e3d6000fd5b5060019050929150505600a165627a7a723058202742ebeec9e290dcc1d6fde5fac5934a611ed2d77ba194835cb8d38279455b2f0029",
  "source": "pragma solidity 0.4.24;\n\ncontract Splitter {\n  address owner;\n\n  event LogDetails(string location);\n  event LogDetailsAndValue(string location, uint256 value);\n  event LogDetailsAndAddress(string location, address value);\n  constructor () public payable {\n    owner = msg.sender;\n  }\n  \n  function transferAmount(address addressOfAccount, uint256 amount) private  returns (bool)\n  {\n    addressOfAccount.transfer(amount);\n    return true;\n  }\n\n  function split(address toAccountOne, address toAccountTwo) public payable returns (bool) {\n    // emit LogDetailsAndAddress(\"toAccountOne\",toAccountOne);\n    // emit LogDetailsAndAddress(\"toAccountTwo\",toAccountTwo);\n    // emit LogDetails(\"Pre Require Split...\");\n    require(msg.sender == owner,\"Cannot split funds unless you are the owner.\");\n    // emit LogDetails(\"Pre Require Split Amount unavailable...\");\n    require(msg.value >= 0,\"Cannot split funds as you do not have any ether.\");\n    // emit LogDetails(\"Pre calculation...\");\n    uint256 amountPerPerson = msg.value / 2;\n    uint256 remainder = msg.value - (amountPerPerson * 2);\n    //emit LogDetails(\"Pre Transfer Account 1...\");\n    require(transferAmount(toAccountOne,amountPerPerson),\"Transfer failed\");\n    //emit LogDetailsAndValue(\"Pre Transfer Account 2... Account 1\",amountPerPerson);\n    require(transferAmount(toAccountTwo,amountPerPerson),\"Transfer failed\");\n    //emit LogDetailsAndValue(\"Pre Remainder... Account 2\",amountPerPerson);\n    \n    if (remainder > 0)\n    {\n      //emit LogDetailsAndValue(\"Pre End... Remainder\",remainder);\n      require(transferAmount(msg.sender,remainder),\"Transfer failed\");\n    }\n    //emit LogDetails(\"Pre True\");\n    return true;\n  }\n\n}",
  "sourcePath": "/home/richard/DAPPS/Project_1_Splitter/contracts/Splitter.sol",
  "compiler": {
    "name": "solc",
    "version": "0.4.24+commit.e67f0147.Emscripten.clang"
  },
  "schemaVersion": "2.0.1",
  "updatedAt": "2018-09-06T11:06:39.552Z"
}