{
  "contractName": "Splitter",
  "abi": [
    {
      "constant": false,
      "inputs": [],
      "name": "stopContract",
      "outputs": [],
      "payable": false,
      "stateMutability": "nonpayable",
      "type": "function"
    },
    {
      "constant": false,
      "inputs": [],
      "name": "resumeContract",
      "outputs": [],
      "payable": false,
      "stateMutability": "nonpayable",
      "type": "function"
    },
    {
      "inputs": [],
      "payable": true,
      "stateMutability": "payable",
      "type": "constructor"
    },
    {
      "anonymous": false,
      "inputs": [
        {
          "indexed": false,
          "name": "sender",
          "type": "address"
        },
        {
          "indexed": false,
          "name": "amountSent",
          "type": "uint256"
        },
        {
          "indexed": false,
          "name": "accountOne",
          "type": "address"
        },
        {
          "indexed": false,
          "name": "accountTwo",
          "type": "address"
        }
      ],
      "name": "LogDetailsOfTransferAmount",
      "type": "event"
    },
    {
      "anonymous": false,
      "inputs": [
        {
          "indexed": false,
          "name": "account",
          "type": "address"
        },
        {
          "indexed": false,
          "name": "value",
          "type": "uint256"
        }
      ],
      "name": "LogDetailsofWithdrawal",
      "type": "event"
    },
    {
      "anonymous": false,
      "inputs": [
        {
          "indexed": false,
          "name": "account",
          "type": "address"
        }
      ],
      "name": "LogDetailsofEmergencyWithdrawal",
      "type": "event"
    },
    {
      "constant": false,
      "inputs": [
        {
          "name": "toAccountOne",
          "type": "address"
        },
        {
          "name": "toAccountTwo",
          "type": "address"
        }
      ],
      "name": "transferAmount",
      "outputs": [
        {
          "name": "",
          "type": "bool"
        }
      ],
      "payable": true,
      "stateMutability": "payable",
      "type": "function"
    },
    {
      "constant": false,
      "inputs": [
        {
          "name": "amount",
          "type": "uint256"
        }
      ],
      "name": "withdrawAmount",
      "outputs": [],
      "payable": false,
      "stateMutability": "nonpayable",
      "type": "function"
    },
    {
      "constant": false,
      "inputs": [],
      "name": "emergencyWithdraw",
      "outputs": [],
      "payable": false,
      "stateMutability": "nonpayable",
      "type": "function"
    }
  ],
  "bytecode": "0x608060405260008060006101000a81548160ff0219169083151502179055503380600060016101000a81548173ffffffffffffffffffffffffffffffffffffffff021916908373ffffffffffffffffffffffffffffffffffffffff16021790555050610ad6806100706000396000f30060806040526004361061006d576000357c0100000000000000000000000000000000000000000000000000000000900463ffffffff1680630562b9f71461007257806312253a6c1461009f57806344514f02146100b6578063c4bc5da514610124578063db2e21bc1461013b575b600080fd5b34801561007e57600080fd5b5061009d60048036038101908080359060200190929190505050610152565b005b3480156100ab57600080fd5b506100b46103ce565b005b61010a600480360381019080803573ffffffffffffffffffffffffffffffffffffffff169060200190929190803573ffffffffffffffffffffffffffffffffffffffff1690602001909291905050506104af565b604051808215151515815260200191505060405180910390f35b34801561013057600080fd5b506101396107be565b005b34801561014757600080fd5b5061015061089f565b005b6000809054906101000a900460ff161515156101d6576040517f08c379a00000000000000000000000000000000000000000000000000000000081526004018080602001828103825260118152602001807f436f6e74726163742053746f707065642e00000000000000000000000000000081525060200191505060405180910390fd5b7f7ef1f985878acec4cbd63c0cfa2d4e5bd52859aceb74b7cc9f7b105fc3d0b11233600160003373ffffffffffffffffffffffffffffffffffffffff1673ffffffffffffffffffffffffffffffffffffffff16815260200190815260200160002054604051808373ffffffffffffffffffffffffffffffffffffffff1673ffffffffffffffffffffffffffffffffffffffff1681526020018281526020019250505060405180910390a1600160003373ffffffffffffffffffffffffffffffffffffffff1673ffffffffffffffffffffffffffffffffffffffff168152602001908152602001600020548111151515610337576040517f08c379a00000000000000000000000000000000000000000000000000000000081526004018080602001828103825260148152602001807f46756e6473206e6f7420617661696c61626c652e00000000000000000000000081525060200191505060405180910390fd5b80600160003373ffffffffffffffffffffffffffffffffffffffff1673ffffffffffffffffffffffffffffffffffffffff168152602001908152602001600020600082825403925050819055503373ffffffffffffffffffffffffffffffffffffffff166108fc829081150290604051600060405180830381858888f193505050501580156103ca573d6000803e3d6000fd5b5050565b3373ffffffffffffffffffffffffffffffffffffffff16600060019054906101000a900473ffffffffffffffffffffffffffffffffffffffff1673ffffffffffffffffffffffffffffffffffffffff16141515610493576040517f08c379a000000000000000000000000000000000000000000000000000000000815260040180806020018281038252600c8152602001807f556e617574686f72697a6564000000000000000000000000000000000000000081525060200191505060405180910390fd5b60016000806101000a81548160ff021916908315150217905550565b60008060008060009054906101000a900460ff16151515610538576040517f08c379a00000000000000000000000000000000000000000000000000000000081526004018080602001828103825260118152602001807f436f6e74726163742053746f707065642e00000000000000000000000000000081525060200191505060405180910390fd5b7fbf1bf8fc85103cd9d6e3b1122f796220291a1fe9b81370da6a5f692304d2629233348787604051808573ffffffffffffffffffffffffffffffffffffffff1673ffffffffffffffffffffffffffffffffffffffff1681526020018481526020018373ffffffffffffffffffffffffffffffffffffffff1673ffffffffffffffffffffffffffffffffffffffff1681526020018273ffffffffffffffffffffffffffffffffffffffff1673ffffffffffffffffffffffffffffffffffffffff16815260200194505050505060405180910390a1600034101515156106aa576040517f08c379a00000000000000000000000000000000000000000000000000000000081526004018080602001828103825260308152602001807f43616e6e6f742073706c69742066756e647320617320796f7520646f206e6f7481526020017f206861766520616e792065746865722e0000000000000000000000000000000081525060400191505060405180910390fd5b6002348115156106b657fe5b049150600282023403905081600160008773ffffffffffffffffffffffffffffffffffffffff1673ffffffffffffffffffffffffffffffffffffffff1681526020019081526020016000206000828254019250508190555081600160008673ffffffffffffffffffffffffffffffffffffffff1673ffffffffffffffffffffffffffffffffffffffff1681526020019081526020016000206000828254019250508190555060008111156107b25780600160003373ffffffffffffffffffffffffffffffffffffffff1673ffffffffffffffffffffffffffffffffffffffff168152602001908152602001600020600082825401925050819055505b60019250505092915050565b3373ffffffffffffffffffffffffffffffffffffffff16600060019054906101000a900473ffffffffffffffffffffffffffffffffffffffff1673ffffffffffffffffffffffffffffffffffffffff16141515610883576040517f08c379a000000000000000000000000000000000000000000000000000000000815260040180806020018281038252600c8152602001807f556e617574686f72697a6564000000000000000000000000000000000000000081525060200191505060405180910390fd5b60008060006101000a81548160ff021916908315150217905550565b6000809054906101000a900460ff161515610922576040517f08c379a00000000000000000000000000000000000000000000000000000000081526004018080602001828103825260168152602001807f436f6e7472616374207374696c6c206163746976652e0000000000000000000081525060200191505060405180910390fd5b3373ffffffffffffffffffffffffffffffffffffffff16600060019054906101000a900473ffffffffffffffffffffffffffffffffffffffff1673ffffffffffffffffffffffffffffffffffffffff161415156109e7576040517f08c379a000000000000000000000000000000000000000000000000000000000815260040180806020018281038252600c8152602001807f556e617574686f72697a6564000000000000000000000000000000000000000081525060200191505060405180910390fd5b7f882b8ea5a1d449a306b435e85061d27b63173b8aaed2c29ab872d123b8b1579733604051808273ffffffffffffffffffffffffffffffffffffffff1673ffffffffffffffffffffffffffffffffffffffff16815260200191505060405180910390a13373ffffffffffffffffffffffffffffffffffffffff166108fc3073ffffffffffffffffffffffffffffffffffffffff16319081150290604051600060405180830381858888f19350505050158015610aa7573d6000803e3d6000fd5b505600a165627a7a72305820a5d89d2323d27b8e2934834eee2265ab282c49d91fda5759a6ac57869d43eb1a0029",
  "source": "pragma solidity 0.4.24;\n\nimport \"./Pausable.sol\";\n\ncontract Splitter is Pausable {\n\n  mapping (address => uint256) pendingWithdrawals;\n\n  event LogDetailsOfTransferAmount(address sender,uint256 amountSent,address accountOne,address accountTwo);\n  event LogDetailsofWithdrawal(address account, uint256 value);\n  event LogDetailsofEmergencyWithdrawal(address account);\n\n  constructor () public Pausable(msg.sender) payable {  }\n\n  function transferAmount(address toAccountOne, address toAccountTwo) public onlyIfRunning payable returns (bool) {\n\n    emit LogDetailsOfTransferAmount(msg.sender,msg.value, toAccountOne,toAccountTwo);\n    require(msg.value >= 0,\"Cannot split funds as you do not have any ether.\");\n    uint256 amountPerPerson = msg.value / 2;\n    uint256 remainder = msg.value - (amountPerPerson * 2);\n\n    pendingWithdrawals[toAccountOne] += amountPerPerson;\n    pendingWithdrawals[toAccountTwo] += amountPerPerson;\n    \n    if (remainder > 0)\n    {\n      pendingWithdrawals[msg.sender] += remainder;\n    }\n\n    return true;\n  }\n\n  function withdrawAmount(uint256 amount) public onlyIfRunning {\n    emit LogDetailsofWithdrawal(msg.sender,pendingWithdrawals[msg.sender]);\n    require (amount <= pendingWithdrawals[msg.sender],\"Funds not available.\");\n    pendingWithdrawals[msg.sender] -= amount;\n    msg.sender.transfer(amount);\n  }\n\n  function emergencyWithdraw() public onlyWhenStopped onlyAuthorized {\n    emit LogDetailsofEmergencyWithdrawal(msg.sender);\n    msg.sender.transfer(address(this).balance);\n  }\n}",
  "sourcePath": "/home/richard/DAPPS/Splitter/contracts/Splitter.sol",
  "compiler": {
    "name": "solc",
    "version": "0.4.24+commit.e67f0147.Emscripten.clang"
  },
  "schemaVersion": "2.0.1",
  "updatedAt": "2018-09-09T19:39:50.183Z"
}